:100000000C940C070C9434070C9434070C943407AC
:100010000C9434070C9434070C9434070C94340774
:100020000C9434070C9434070C94F8110C941D09AB
:100030000C9434070C9434070C9434070C94340754
:100040000C9434070C9434070C9434070C94340744
:100050000C9434070C9434070C9434070C94AE11B0
:100060000C9434070C9434070C9434070C94340724
:100070000C9434070C9434070C9434070C94340714
:100080000C94090C0C9434070C9434070C9434072A
:100090000C9434070C9434070C9434070C943407F4
:1000A0000C9434070C9434070C9434074238000045
:1000B0000000000000000000000000000000000040
:1000C0000000000000000000000000000000808030
:1000D000C0C060E020E000E000E090F000F800F830
:1000E00004FC00FE00FE82FE00FF00FF00FF01FF97
:1000F00080FF00FF01FF00FF00FF00FF01FF00FF86
:1001000000FF01FF80FF80FF02FE00FE04FC00FCF8
:1001100000F808F808F818F838F838F878F878F897
:10012000FCFC0CFC64FC14FC94FCC4FC64FC8CFC27
:10013000FCFC0000000000000000000000000000C7
:10014000000000000000000000000000C0C078F8BF
:100150001EFE03FF01FF80FFF0FFFCFFFFFFFFFF1C
:10016000FFFFF0FFC0FFFCFFFFFF3FFF03FFC0FFEB
:10017000FCFFFFFF3FFF03FF00FF00FFE0FFFEFF6C
:10018000FFFF1EFF00FF03FF03FF07FF07FFC7FF7F
:10019000FFFFFFFF3EFF0EFF0EFF1CFF18FF18FFC3
:1001A00000FF01FF7AFFC6FF3CFFF2FF0EFF7EFF5C
:1001B000FFFFFFFFFFFF0000000000000000000045
:1001C00000000000000000008080E0E07CFC8FFF69
:1001D000E1FF00FF00FF30FF7CFF3FFF0FFF03FF49
:1001E00000FF07FFFFFFFFFF7FFF1FFF01FF00FF73
:1001F0000CFF3FFF7FFF7FFFFCFFF0FFF0FFF8FFEA
:100200007FFF3FFF07FF00FF00FF00FF00FFC0FF71
:10021000FCFFFFFF3FFF03FF00FF00FF00FF00FFA9
:1002200000FF00FF00FF00FF80FFFFFF00FFFDFF5A
:1002300057FF00FFFFFF6FFFFFFF000000000000FF
:10024000000000000000C0C0F0F0FEFEFFFFFFFF56
:1002500000FF8FFF3FFFF8FFE0FF80FF00FF00FF80
:1002600000FF00FF00FF00FF00FF00FF00FF00FF96
:1002700000FF00FF00FF00FF00FF00FF00FF00FF86
:1002800000FF00FF00FF00FF00FF00FF00FF00FF76
:1002900000FF00FF01FF00FF00FF00FF00FF00FF65
:1002A00080FFC0FFC0FFE0FF70FF9CFF2FFFD1FF6A
:1002B00036FF2DFFC3FF18FFF7FF89FF7FFF000008
:1002C00000008080E0E0F8F87EFE7FFF7FFF7FFF88
:1002D0007FFFFFFFFCFFF1FFCFFF9EFF7DFFFBFFD6
:1002E000E7FFCEFFDCFF9CFFBCFF38FF38FF38FF85
:1002F00070FF70FF70FF60FF60FFE0FFE0FFE0FF56
:10030000E0FFE0FF60FF60FF70FF70FF70FF30FFF5
:1003100030FFB8FFB8FF58FFCCFFACFFCCFFF6FFB3
:10032000A2FFDBFF25FF48FFB6FF48FF92FF65FFF6
:1003300092FF79FF44FF3BFF64FF9FFF70FF8FFF39
:1003400072FFF0F0FCFCFFFFF1FFE6FFC3FFD1FFFF
:10035000D8FFDCFFCEFFE0FFFFFFFFFFFFFFFFFF47
:10036000FFFFFEFFFDFFFBFFFBFFF7FFF7FFEFFFC8
:10037000EFFFEFFF6FFFDFFFDEFFDEFFDEFFDEFFE1
:10038000DEFFDEFFDEFFDEFFDEFFDFFFDFFFDFFF82
:10039000DFFFEFFF67FFEFFFAAFFF7FFB3FFFBFFF2
:1003A000AAFF5DFFF4FF2EFFF2FF4FFFB8FF67FFCC
:1003B0009AFF75FF80FF66FFC3FF18FFD4FF8AFF17
:1003C00061FF9EFF61FF01010101010101010101C6
:1003D000010101010101010101010101010101010D
:1003E00001010101010101010101010101010101FD
:1003F00001010101000101010101010101010101EE
:1004000001010101010100010101010100010101DE
:1004100001010001010101010101010100010101CE
:1004200000010101000101010101000101010001C0
:1004300001010101000101010101000101010101AE
:1004400000010101000101010101000000000000A4
:10045000000000000000000000000000000000009C
:1004600000000000000000000000808040C0A0E00C
:10047000A0E050F0B0F030F0F0F070F070F030F03C
:1004800030F030F030F010F010F010F018F808F8FC
:1004900008F808F808F808F808F808F808F808F85C
:1004A00008F808F808F808F808F808F818F818F82C
:1004B00038F858F8B8F8B8F878F878F8FCFC0CFC7C
:1004C00064FC14FC94FCC4FC64FC8CFCFCFC00008C
:1004D000000000000000000000000000000000001C
:1004E0000000000000000000C0C078F8BEFE4FFF12
:1004F00036FF19FF0AFF01FFC1FFF0FFF8FFF0FF11
:1005000000FF00FFC0FFF0FFF8FF30FF00FFC0FF5B
:10051000F0FFF8FF30FF00FF00FF00FFE0FFF0FFFB
:10052000E0FF00FF30FF38FF78FF70FF70FFF0FF43
:10053000F0FFE0FFE0FFE0FFC0FF83FF86FF0DFF5D
:100540007AFFC6FF3CFFF2FF0EFF7EFFFFFFFFFFBB
:10055000FFFF00000000000000000000000000009D
:10056000000000008080E0E07CFC8FFFE1FF1EFFC8
:1005700001FF00FF00FFC0FFF8FFFFFF3FFF0FFF7D
:100580007FFFFFFFFFFFFCFFFFFF1FFF03FFC0FF19
:10059000FCFFFFFFFFFF83FF00FF00FFC0FFFEFF28
:1005A000FFFF7FFF01FF00FF00FF00FF00FFC0FF14
:1005B000FCFFFFFF3FFF03FF00FF00FF01FF01FF04
:1005C00001FF00FF80FFFFFF00FFFDFF57FF00FF5F
:1005D000FFFF6FFFFFFF00000000000000000000B1
:1005E0000000C0C0F0F0FEFEFFFFFFFF00FF8FFF26
:1005F0003FFFF8FFE0FF80FF03FF07FF03FF00FF5F
:1006000000FF00FF00FF0FFF0FFF07FF01FF00FFCC
:1006100000FF00FF03FF07FF07FF0FFF0FFF0FFFA4
:100620000FFF07FF03FF00FF00FF00FF00FF00FFB9
:100630000CFF1FFF0FFF03FF00FF00FF80FFC0FF45
:10064000C0FFE0FF70FF9CFF2FFFD1FF36FF2DFFA3
:10065000C3FF18FFF7FF89FF7FFF000000008080C5
:10066000E0E0F8F87EFE7FFF7FFF7FFF7FFFFFFF68
:10067000FCFFF1FFCFFF9EFF7DFFFBFFE7FFCEFFFB
:10068000DCFF9CFFBCFF38FF38FF38FF70FF70FFB6
:1006900070FF60FF60FFE0FFE0FFE0FFE0FFE0FFD2
:1006A00060FF60FF70FF70FF70FF30FF30FFB8FF2A
:1006B000B8FF58FFCCFFACFFCCFFF6FFA2FFDBFF7B
:1006C00025FF48FFB6FF48FF92FF65FF92FF79FFC5
:1006D00044FF3BFF64FF9FFF70FF8FFF72FFF0F04E
:1006E000FCFCFFFFF1FFE6FFC3FFD1FFD8FFDCFFFB
:1006F000CEFFE0FFFFFFFFFFFFFFFFFFFFFFFEFF5B
:10070000FDFFFBFFFBFFF7FFF7FFEFFFEFFFEFFF43
:100710006FFFDFFFDEFFDEFFDEFFDEFFDEFFDEFF5F
:10072000DEFFDEFFDEFFDFFFDFFFDFFFDFFFEFFFCC
:1007300067FFEFFFAAFFF7FFB3FFFBFFAAFF5DFF15
:10074000F4FF2EFFF2FF4FFFB8FF67FF9AFF75FF20
:1007500080FF66FFC3FF18FFD4FF8AFF61FF9EFF83
:1007600061FF01010101010101010101010101011B
:100770000101010101010101010101010101010169
:100780000101010101010101010101010101010159
:10079000000101010101010101010101010101014A
:1007A000010100010101010100010101010100013C
:1007B000010101010101010100010101000101012B
:1007C000000101010101000101010001010101011C
:1007D000000101010101000101010101000101010C
:1007E000000101010101D5F08D14A1C881CFD9F11B
:1007F000AF2000F0F89C8E8783878E9CF8F0000075
:10080000FEFF0303030303070EFCF80000FEFF03D3
:1008100003030303070EFCF80000FFFF00000000C5
:10082000000000FFFF0000FEFF8383838383C7EE89
:100830007C380000F8FC0E07030303070EFCF800E9
:10084000003F7FE0C08080C0E07F3FFFFF010101EB
:1008500001010101FFFF0000FFFF0C0C0C0C1C3E0E
:1008600077E3C100007FFFC0C0C0C0C0E0703F1F81
:1008700000001F3F70E0C0C0C0E0703F1F00007F5D
:10088000FFC1C1C1C1C1E3773E1C00001F3F70E042
:10089000C0C0C0E0703F1F000000000001FFFF016A
:1008A0000000005802C800008000000000003E5B0D
:1008B0004F5B3E3E6B4F6B3E1C3E7C3E1C183C7EAD
:1008C0003C181C577D571C1C5E7F5E1C00183C1892
:1008D00000FFE7C3E7FF0018241800FFE7DBE7FF8E
:1008E00030483A060E2629792926407F050507401B
:1008F0007F05253F5A3CE73C5A7F3E1C1C08081CDC
:100900001C3E7F14227F22145F5F005F5F06097F19
:10091000017F006689956A606060606094A2FFA2B2
:100920009408047E040810207E201008082A1C0861
:10093000081C2A08081E101010100C1E0C1E0C306B
:10094000383E3830060E3E0E060000000000000063
:100950005F00000007000700147F147F14242A7F23
:100960002A122313086462364956205000080703F0
:1009700000001C2241000041221C002A1C7F1C2A6E
:1009800008083E08080080703000080808080800C1
:100990000060600020100804023E5149453E0042BC
:1009A0007F400072494949462141494D331814128C
:1009B0007F1027454545393C4A49493141211109B4
:1009C000073649494936464949291E0000140000A6
:1009D00000403400000008142241141414141400C0
:1009E0004122140802015909063E415D594E7C120C
:1009F00011127C7F494949363E414141227F4141A4
:100A0000413E7F494949417F090909013E41415120
:100A1000737F0808087F00417F41002040413F016B
:100A20007F081422417F404040407F021C027F7FAC
:100A30000408107F3E4141413E7F090909063E41BD
:100A400051215E7F09192946264949493203017F10
:100A500001033F4040403F1F2040201F3F4038409F
:100A60003F631408146303047804036159494D4338
:100A7000007F4141410204081020004141417F04B0
:100A80000201020440404040400003070800205497
:100A90005478407F284444383844444428384444F7
:100AA000287F385454541800087E090218A4A49CC6
:100AB000787F0804047800447D40002040403D00D9
:100AC0007F1028440000417F40007C047804787C3B
:100AD000080404783844444438FC182424181824A2
:100AE0002418FC7C08040408485454542404043F8B
:100AF00044243C4040207C1C2040201C3C40304092
:100B00003C44281028444C9090907C4464544C44BD
:100B1000000836410000007700000041360800025E
:100B2000010204023C2623263C1EA1A161123A4088
:100B300040207A38545455592155557941215454FF
:100B40007841215554784020545579400C1E5272FA
:100B500012395555555939545454593955545458D6
:100B60000000457C410002457D420001457C40F08B
:100B7000292429F0F0282528F07C545545002054DC
:100B8000547C547C0A097F493249494932324848E9
:100B90004832324A4848303A4141217A3A4240206C
:100BA00078009DA0A07D39444444393D4040403DFB
:100BB0003C24FF2424487E4943662B2FFC2F2BFF27
:100BC0000929F620C0887E09032054547941000089
:100BD000447D413048484A32384040227A007A0AFF
:100BE0000A727D0D19317D2629292F2826292929C8
:100BF0002630484D402038080808080808080838FA
:100C00002F10C8ACBA2F102834FA00007B0000085F
:100C1000142A142222142A14089500220095AA00EE
:100C20005500AAAA55AA55AA000000FF00101010EE
:100C3000FF00141414FF001010FF00FF1010F0103C
:100C4000F0141414FC001414F700FF0000FF00FF60
:100C50001414F404FC141417101F10101F101F1488
:100C600014141F00101010F0000000001F101010CE
:100C7000101F10101010F010000000FF10101010C6
:100C80001010101010FF10000000FF140000FF00F3
:100C9000FF00001F10170000FC04F41414171017B5
:100CA0001414F404F40000FF00F7141414141414C2
:100CB00014F700F7141414171410101F101F141435
:100CC00014F4141010F010F000001F101F000000AA
:100CD0001F14000000FC140000F010F01010FF10B2
:100CE000FF141414FF141010101F00000000F01067
:100CF000FFFFFFFFFFF0F0F0F0F0FFFFFF0000004C
:100D00000000FFFF0F0F0F0F0F38444438447C2AB8
:100D10002A3E147E02020606027E027E02635549C6
:100D200041633844443C04407E201E2006027E027B
:100D30000299A5E7A5991C2A492A1C4C7201724CFC
:100D4000304A4D4D303048784830BC625A463D3EBE
:100D5000494949007E0101017E2A2A2A2A2A44445F
:100D60005F444440514A444040444A51400000FFDF
:100D70000103E080FF000008086B6B083612362480
:100D800036060F090F0600001818000000101000AA
:100D90003040FF0101001F01011E00191D17120044
:100DA0003C3C3C3C0000000000080B000202020139
:100DB00000090400000102020000052400100105E2
:100DC000240101010424020605240600010705810F
:100DD0000310004009040100020A00000007050298
:100DE00002400000070583024000000403090412CA
:100DF000010002EF0201404123360000010102031D
:100E00000141726475696E6F204C4C4300417264FD
:100E100075626F790000991711241FBECFEFDAE0D9
:100E2000DEBFCDBF11E0A0E0B1E0E6E7F6E302C02F
:100E300005900D92AA36B107D9F726E0AAE6B1E0EF
:100E400001C01D92A131B207E1F717E0CCE0D7E075
:100E500004C02197FE010E94F518CB30D107C9F7D5
:100E60000E946A120C94391B0C94000040917E0180
:100E700050917F0120917C0130917D0142175307F1
:100E8000B4F49091E8009570E1F39091E80092FD40
:100E900019C08093F10080917E0190917F010196AD
:100EA0008F739927892B19F48EEF8093E800809136
:100EB0007E0190917F01019690937F0180937E0146
:100EC00081E0089580E00895DF92EF92FF920F9302
:100ED0001F93CF93DF93D82E8A017B01E40EF51E7A
:100EE000EB01CE15DF0571F0D7FE03C0FE01849142
:100EF00001C088810E94360721968111F2CF8FEFC1
:100F00009FEF01C0C801DF91CF911F910F91FF901A
:100F1000EF90DF900895615030F02091F100FC01D6
:100F200020830196F8CF289884E68093870108955E
:100F3000CF92DF92EF92FF920F931F93CF93DF93A5
:100F40006C017A018B01C0E0D0E0CE15DF0581F0A5
:100F5000D8016D918D01D601ED91FC910190F08148
:100F6000E02DC6010995892B11F02196EECF7E0167
:100F7000C701DF91CF911F910F91FF90EF90DF900C
:100F8000CF900895CF93DF931F92CDB7DEB76983DB
:100F9000DC01ED91FC910280F381E02D41E050E015
:100FA000BE016F5F7F4F09950F90DF91CF9108953C
:100FB00083E08093E9008091F200882319F08AE3AE
:100FC0008093E8000895FC018485958597FD0BC00A
:100FD0009FB7F89482E08093E9008091F2009FBF70
:100FE00090E0019608959FB7F89482E08093E9001D
:100FF0008091F2009FBF90E0089580917101E0918F
:101000006F01F0917001882349F0CF01029690930F
:10101000700180936F01859194910895CF0102969C
:101020009093700180936F018081918108958091E8
:101030006C0108950895089580E090E008950F935D
:101040001F93CF93DF931F92CDB7DEB782E08983E2
:1010500042E450E069EA7DE080E80E9464070E9473
:101060003B11DC0112960D911C911397011511058E
:1010700089F0D801ED91FC910280F381E02DBE0151
:101080006F5F7F4FC801099597FD04C0F801008587
:101090001185ECCF89810F90DF91CF911F910F9136
:1010A00008958F929F92AF92BF92CF92DF92EF926C
:1010B000FF920F931F93CF93DF936C017B018A0103
:1010C00080910B01882309F45CC0809188018823FA
:1010D00009F457C08091810180FF05C08091E00034
:1010E00082608093E000E801B12C8AEFA82E93E0A3
:1010F000892E2AE3922E209711F4BB20D9F10E9469
:101100002A1181110AC0AA94AA20D9F161E070E0E5
:1011100080E090E00E947411EECF282F30E0C217DB
:10112000D3070CF48C2F9FB7F8948092E90020919C
:10113000E80025FF1DC0282F30E0C21BD30BF701AC
:10114000815020F041914093F100FACFE20EF31E5E
:10115000BB2019F09092E8000AC08091E80085FD5C
:1011600007C09092E800BB24B394209709F0B12CFB
:101170009FBFC1CF5D9884E680938201101611064F
:1011800044F081E090E0F6019383828380E090E078
:1011900001C0C801DF91CF911F910F91FF90EF9097
:1011A000DF90CF90BF90AF909F908F9008950E9456
:1011B0002A1190E008950F931F93CF93DF931F920E
:1011C000CDB7DEB78C01FC018485958597FF0EC0F5
:1011D000CE0101960E94FC10019719F4898190E0DC
:1011E00002C08FEF9FEFF80195878487F80184850F
:1011F00095850F90DF91CF911F910F910895CF9317
:10120000DF931F92CDB7DEB7FC018485958597FDEE
:1012100005C02FEF3FEF358724870BC0CE01019625
:101220000E94FC10019719F4898190E002C08FEFB1
:101230009FEF0F90DF91CF9108951F920F920FB6FD
:101240000F921124CF92DF92EF92FF920F931F9390
:101250002F933F934F935F936F937F938F939F93BE
:10126000AF93BF93EF93FF93CF93DF93CDB7DEB7E9
:101270006C97DEBFCDBF1092E9008091E80083FF3C
:10128000FBC168E0CE0145960E948B0782EF8093F8
:10129000E8008D8987FF05C09091E80090FFFCCFA2
:1012A00003C09EEF9093E800982F907609F0C6C097
:1012B0009E894F89588D2F89F88C91110CC08038E8
:1012C00029F4809172018093F10002C01092F10024
:1012D0001092F10045C1913051F4811141C141306A
:1012E000510509F03DC1809172018D7F0BC0933093
:1012F00061F4811135C14130510509F031C180914E
:1013000072018260809372012BC1953049F4809103
:10131000E80080FFFCCF822F80688093E30020C12B
:10132000963009F05EC00B8D1C8D22E01092E90012
:1013300010927F0110927E01F21232C010927D0154
:1013400010927C010E941F0899E0BE016F5F7F4FE1
:10135000DB01E92F1D92EA95E9F79983FA8291E082
:101360009E8390EA98879AEF998720917E01309129
:101370007F01275F3F4F3C832B838D831092E900D1
:1013800010927F0110927E0110937D0100937C01E9
:1013900049E050E080E00E9464070E941F08E0C01E
:1013A00010937D0100937C010E943B11DC01129699
:1013B0000D911C9113970115110509F4BBC0D801BB
:1013C000ED91FC910480F581E02DBE016B5E7F4FB5
:1013D000C8010995009709F0C7C0F801008511857B
:1013E000EACF973009F445C1983021F481E0809329
:1013F000F100B6C0993009F0B3C0837009F039C16B
:10140000E2E3F1E081E031E096E32081211109C0BF
:101410008EE78093EA001092EA008F89809388011A
:101420009FC08093E9003093EB0021912093EC0062
:101430009093ED008F5F873041F7EACF8B8D9C8DC5
:101440001092E90010927F0110927E0190937D012D
:1014500080937C01898D811153C08E899D89913A39
:1014600049F4813209F005C147E050E064E071E0E1
:1014700080E0BBC0913209F0FCC0833269F48F89EF
:10148000988DA0E0B0E08093000190930101A093BB
:101490000201B093030164C0803269F48091E800D6
:1014A00082FFFCCF67E084E091E00E948B078BEF26
:1014B0008093E80055C0823209F052C08F89809332
:1014C0000B01EEEFFFE7859194918B3F9C4D19F056
:1014D000E0E0F8E002C0EEEFFAE0809104019091C4
:1014E0000501A0910601B0910701803B9440A10540
:1014F000B10509F09EC080910B0180FF79C099C0B1
:101500000E943B11FC01028113810115110509F4B0
:10151000B0C0D801ED91FC910190F081E02DBE01A9
:101520006B5E7F4FC801099581111AC0F8010085D3
:101530001185EBCFF1E0FF1609F44EC0F3E0FF1286
:1015400098C08F89882309F44AC0823089F440E822
:1015500067E08DE09EE00E941F17882309F489C090
:101560008EEF8093E80088C018161906CCF381C06E
:10157000813029F440E86BE081E09EE0ECCF8330DD
:1015800009F077C00E943B11DC011296ED90FC90AF
:1015900013978E010F5F1F4F6801E114F10479F07A
:1015A000D701ED91FC910680F781E02DB801C701CC
:1015B0000995080F111DF701E084F184EECFD801E1
:1015C0001C92F60101900020E9F73197BF016C19D8
:1015D0007D0940E0C601BFCF6FEE7DE002C06BEE3B
:1015E0007DE0FB01449150E080E80E946407B8CFA1
:1015F000EE3F2AE0F20751F0808191818737A7E71B
:101600009A0721F09093FF0A8093FE0A87E797E7F5
:101610009183808380916000809380019BE088E1CA
:101620000FB6F894A895809360000FBE9093600069
:1016300097CF808191818737974709F091CFA895FF
:101640008091600088618093600080918001809328
:101650006000EE3FBAE0FB0739F08091FE0A9091FE
:10166000FF0A918380837CCF1092FF0A1092FE0ABA
:1016700077CF81E28093EB006C960FB6F894DEBFD3
:101680000FBECDBFDF91CF91FF91EF91BF91AF9191
:101690009F918F917F916F915F914F913F912F918A
:1016A0001F910F91FF90EF90DF90CF900F900FBEA2
:1016B0000F901F901895CF92DF92EF92FF920F93A9
:1016C0001F93CF93DF930E94FD07811520E89207B7
:1016D00061F4809171008D7F809371001092910070
:1016E00046984798109275018BC021E020937501B0
:1016F000813020E8920751F480916D0190916E0144
:101700009093700180936F010E94FD0797FD05C0C3
:1017100020917401222309F43FC02091730121110B
:101720003BC021E020937601EC01DF77209769F43C
:1017300081E08093770146983FE9C32E3FE0D32EA6
:10174000E12CF12CCAEFD0E014C08E0120E030E093
:1017500060E472E48FE090E0A90198010E94921881
:1017600069017A0181E0C81AD108E108F1081092F4
:101770007701E091D905F091DA050995811103C04F
:1017800081E080937701809176018823B9F180917F
:101790007701811133C003C010927601C5CF4699FD
:1017A0002DC0479A0E94FD07009771F09C01DE0151
:1017B0000E94E618DC01CB0129E0B595A795979525
:1017C00087952A95D1F703C08FEF9FEFDC01109228
:1017D00090002AE020939100D0929900C092980046
:1017E0008093780190937901A0937A01B0937B0163
:1017F0008091710082608093710002C04798D2CFBF
:10180000DF91CF911F910F91FF90EF90DF90CF90DC
:1018100008951F920F920FB60F9211242F933F93AA
:101820004F935F936F937F938F939F93AF93BF93E8
:10183000EF93FF938091780190917901A0917A01C3
:10184000B0917B01892B8A2B8B2B81F180917701C1
:1018500081110BC098B180E4892788B98091760105
:10186000882319F088B1805888B9809178019091C7
:101870007901A0917A01B0917B01181619061A0618
:101880001B06B4F48091780190917901A0917A01BE
:10189000B0917B010197A109B109809378019093E0
:1018A0007901A0937A01B0937B0102C00E945B0B87
:1018B000FF91EF91BF91AF919F918F917F916F9128
:1018C0005F914F913F912F910F900FBE0F901F90FE
:1018D00018952D9A0895BC0180E090E00C94741145
:1018E0008FB18095807F669B88601C9B8460089583
:1018F00010926C013E983F9808950C947C188038A3
:101900009105B8F460347105A0F490E121E061FD27
:1019100024E060FD220F62FD2295687F969FD00132
:101920001124A80FA757BE4F8C91822B40FF82270E
:101930008C9308952F923F924F925F926F927F9275
:101940008F929F92AF92BF92CF92DF92EF92FF92CF
:101950000F931F93CF93DF93CDB7DEB727970FB6C3
:10196000F894DEBF0FBECDBF9F838E836A30A1F493
:10197000DC0155962C91559751968D919C915297DB
:10198000B8E02B9F800D911D1124EE81FF81928B79
:10199000818B108A1786ADC06D3009F4AAC0AE8164
:1019A000BF811F960D911C91509700381105BCF016
:1019B000EE81FF812589422F50E087859089F6E0EE
:1019C0002F9F800D911D1124AE81BF8150969C9355
:1019D0008E931F9756962C91211175C08AC0EE8167
:1019E000FF8181889288F0E48F1691040CF7AE8114
:1019F000BF8155963C90C801B5E03B9E800D911D7E
:101A0000112418161906A4F6432C512CC401E8E041
:101A10003E9E800D911D1124181619064CF6AE81BC
:101A2000BF815496BC91BC83EE81FF81F389FD8315
:101A300025E0629FB0011124CB018755974F3C01EF
:101A40001982F3012490F981F53009F4212C640105
:101A500028E02B8320FE03C03D813A8302C08C81A5
:101A60008A839A81911104C0AC81BD81AB17B9F012
:101A700078018E2D801B831590F456018A2D8C19C8
:101A8000831548F44A81B501C7010E947F0CEFEF2E
:101A9000AE1ABE0AF3CFFFEFEF1AFF0AEACF269481
:101AA0002B8121502B83C40CD51C2111D3CF39811C
:101AB0003F5F3983040D151DC30101963C0136308B
:101AC00009F0BFCF75CF6AEF64039001659F300DB9
:101AD000112420583F4F281739075CF4AE81BF818D
:101AE000ED91FC9111970190F081E02D6AE0CD011C
:101AF000099581E090E027960FB6F894DEBF0FBEFF
:101B0000CDBFDF91CF911F910F91FF90EF90DF90AC
:101B1000CF90BF90AF909F908F907F906F905F908D
:101B20004F903F902F9008958F929F92AF92BF92C7
:101B3000CF92DF92EF92FF92CF93DF93EC01F62EDC
:101B4000E42E8F88988CA98CBA8C20E030E040EC91
:101B500050E4C501B4010E949E1A18160CF465C029
:101B6000FE9CB0011124072E000C880B990B0E94DB
:101B7000121A20E030E04AE754E40E946819A501F7
:101B800094010E94FC186B017C016F8B788F898F08
:101B90009A8F2B853C854D855E850E94A31A4B014B
:101BA0005C01688570E080E090E00E94101A9B0163
:101BB000AC01C501B4010E94FC180E94DA197B83B4
:101BC0006A832F85388949895A89C701B6010E94DD
:101BD000A31A4B015C01698570E080E090E00E94EF
:101BE000101A9B01AC01C501B4010E94FC184B0105
:101BF0005C0120E030E040E05FE36B897C898D8907
:101C00009E890E94A31AA70196010E94A31AA70108
:101C100096010E94A31A9B01AC01C501B4010E9468
:101C2000FB180E94DA197D836C83DF91CF91FF90BE
:101C3000EF90DF90CF90BF90AF909F908F900895DE
:101C4000AC01485F5F4FFC012185222311F02F5F1B
:101C50002187019684179507B1F70895FC018481C7
:101C60009581ABEDB5E02281338150963C932E9364
:101C70001F9752969C938E935197868197810C94CF
:101C800025102F923F924F925F926F927F928F9288
:101C90009F92AF92BF92CF92DF92EF92FF920F93FB
:101CA0001F93CF93DF9300D000D01F92CDB7DEB744
:101CB0003C01FC01208546815781A281B3814115F9
:101CC000510539F483019301285F3F4F3B832A83F9
:101CD000E7C0FA01D490319694914E5F5F4F0D2D7D
:101CE00010E0222301F161E070E0892F877011F488
:101CF00060E070E0892F869586958695680F711D46
:101D0000609FF001619FF00D709FF00D112430E095
:101D1000220F331FE29FB001E39F700DF29F700D01
:101D20001124460F571F7D01E00EF11E1E141F04E3
:101D30004CF6A038B1050CF0C5CFF30124813581F4
:101D4000B901690F711D161617060CF0BBCF2034B0
:101D500031050CF0B7CF4115510509F4B3CF822FEF
:101D60008770B90137FF02C0695F7F4FE3E0759567
:101D70006795EA95E1F7E62F37FF04C0882311F055
:101D8000EFEFE60FB7FF05C0662777276A1B7B0BCF
:101D900002C060E070E0F0E8EF16F10424F020E803
:101DA0002A1BB22E01C0BD2CB61AEE2E0E2E000C30
:101DB000FF08EF3F1CF4FE2DF09501C0F0E0CC24AD
:101DC000C394392F377009F4C12C96959695969542
:101DD0009C0DE90EF11C29E0E216F10414F098E0E4
:101DE0009E1B9F1BCE2ECF0E3C2D20E83203A00D54
:101DF000B11D1124A60FB71FA757BE4FEB2CF12C16
:101E00004B01DF9E800C911C1124F401EE0FFF1F8B
:101E1000E40FF51F60E870E06E197F09A8014E1904
:101E20005F09440F551F01E010E07801082E01C042
:101E3000EE0C0A94EAF72B2D192F9B2C882ECF93AA
:101E4000DF93ED01EF96EF962296A590C59088203E
:101E500059F0AE9C5001CE9C600137302CF4F880D4
:101E6000D094FD20FB28F99233233AF0FC90C094E3
:101E7000FC20FA28FD920C943E0F11962A9529F722
:101E80001A9551F0292D33951124E40FF11DA60F59
:101E9000B11DC60FD11DD9CFDF91CF91112412CF23
:101EA000F801818581508232F8F00F5F1F4F8A80E0
:101EB0009B8008151905A1F70F900F900F900F90B8
:101EC0000F90DF91CF911F910F91FF90EF90DF90D6
:101ED000CF90BF90AF909F908F907F906F905F90CA
:101EE0004F903F902F9008951982F801F1858980D5
:101EF000F80DAF2EB12CBD82AC82CC24C394D12C72
:101F0000CA18DB082501519441945108440C551C12
:101F1000B5016E5D7F4F41E080E690E00E947F0C4E
:101F200062E270E06A197B0941E080E690E00E947D
:101F30007F0C41E062E270E0C501805A9F4F0E9431
:101F40007F0C41E062E270E080E690E08A199B0934
:101F50000E947F0CE12CF12C22242394312C8C80C4
:101F60009D80E814F9040CF067C0D7FC0AC0940106
:101F7000215031093D832C8332E0430E511CC40CA7
:101F8000D51C8FEFE81AF80A92E0290E311CC20C1A
:101F9000D31C4701E0E68E0E911C41E0AC80BD8071
:101FA000F2E2AF0EB11CB501C4010E947F0C80E6C5
:101FB000682E712C6E187F0841E0B501C3010E94A4
:101FC0007F0C41E092E2A92EB12C2C813D81A21A16
:101FD000B30AB501C4010E947F0C41E0B501C30101
:101FE0000E947F0C470132E2830E911C41E0B40154
:101FF000AC80BD8080E6A80EB11CC5010E947F0C9C
:1020000041E0B40120E6622E712C8C809D8068181E
:102010007908C3010E947F0C32E2832E912C8E1826
:102020009F0841E0B401C5010E947F0C41E0B4016A
:10203000C3010E947F0C93CF29812F5F2983243015
:1020400009F053CF32CF0E94341B009769F0FC0196
:1020500001900020E9F73197AF01481B590BBC01F3
:102060008BED95E00C94980780E090E00895E9E806
:10207000F1E0A0E0B8E000800EBC8111012C1197C6
:10208000A0FDFDCF0192B9F70DB408958F929F92F4
:10209000AF92BF92CF92DF92EF92FF920F931F9376
:1020A000CF93DF937C016B01C0E0D0E002E010E051
:1020B000842F8470A82E842F8270982E842F88708D
:1020C000882E4170B42E2196AA2091F041E0B801EB
:1020D0006C0D7D1DC7018C0F9D1F0E947F0C41E080
:1020E000B6016C0F7D1FC8018E0D9F1D0E947F0CD5
:1020F000992091F041E0B601601B710BC7018C0F74
:102100009D1F0E947F0C41E0B6016C1B7D0BC80136
:102110008E0D9F1D0E947F0C882091F041E0B6013A
:102120006C0F7D1FC701801B910B0E947F0C41E04B
:10213000B8016C0D7D1DC7018C1B9D0B0E947F0C8F
:10214000BB2091F041E0B6016C1B7D0BC701801BE9
:10215000910B0E947F0C41E0B601601B710BC7011F
:102160008C1B9D0B0E947F0CC017D1071CF401E053
:1021700010E0A9CFDF91CF911F910F91FF90EF90C9
:10218000DF90CF90BF90AF909F908F9008959C016B
:10219000240F311D1216130674F5803891055CF575
:1021A00097FF02C080E090E02138310514F020E86C
:1021B00030E0281BAB014770552731E001C0330FD9
:1021C0004A95EAF777FF02C0695F7F4F43E0759554
:1021D00067954A95E1F77695762F66277795679507
:1021E000860F971FFC01E757FE4F215020F080819A
:1021F000832B8193FACF089520918801211103C088
:102200008FEF9FEF08955FB7F89422E02093E900E5
:102210002091F20030E01216130614F421E030E0B1
:10222000422FFC0184E6415038F0289880938701C2
:102230009091F1009193F7CF2115310521F0809114
:10224000F200882319F05FBFC90108958BE68093DF
:10225000E800F9CF2FB7F89483E08093E9009091DC
:10226000E800892F807295FF04C09091F20080E40D
:10227000891B2FBF08958091FB0581110DC082E05D
:102280008093F70584E08093F8051092FA05109288
:10229000F90581E08093FB0587EF95E008953FB74E
:1022A000F8948091F3059091F405A091F505B09113
:1022B000F60526B5A89B05C02F3F19F00196A11D74
:1022C000B11D3FBFBA2FA92F982F8827820F911DCC
:1022D000A11DB11DBC01CD0142E0660F771F881F13
:1022E000991F4A95D1F708958F929F92AF92BF920E
:1022F000CF92DF92EF92FF926B017C010E944F110F
:102300004B015C01C114D104E104F104F1F00E941D
:102310004F11DC01CB0188199909AA09BB09883E34
:102320009340A105B10570F321E0C21AD108E1087C
:10233000F10888EE880E83E0981EA11CB11CC11420
:10234000D104E104F10419F7DDCFFF90EF90DF90A5
:10235000CF90BF90AF909F908F9008951F920F9253
:102360000FB60F9211242F933F938F939F93AF93A8
:10237000BF938091830190918401A0918501B091D8
:1023800086013091F20523E0230F2D3720F40196CA
:10239000A11DB11D05C026E8230F0296A11DB11D88
:1023A0002093F2058093830190938401A09385018B
:1023B000B09386018091F3059091F405A091F50505
:1023C000B091F6050196A11DB11D8093F305909380
:1023D000F405A093F505B093F605BF91AF919F91D9
:1023E0008F913F912F910F900FBE0F901F901895D6
:1023F0001F920F920FB60F9211248F939F9380918B
:10240000E1009091E100937F9093E10083FF0FC082
:102410001092E90091E09093EB001092EC0092E3AF
:102420009093ED001092880198E09093F00082FF65
:1024300020C093E09093E9009091F200992319F065
:102440009AE39093E80090918201992339F090915A
:102450008201915090938201992389F19091870193
:10246000992339F090918701915090938701992396
:1024700041F184FF10C08091E2008E7E81608093E4
:10248000E2008091E1008F7E8093E10080918101E4
:102490008E7E806111C080FF16C08091E2008E7E2A
:1024A00080618093E2008091E1008E7E8093E10064
:1024B000809181018E7E81608093810104C05D9A4C
:1024C000CDCF289AD6CF9F918F910F900FBE0F90AE
:1024D0001F901895CF93DF93CDB7DEB7CC50D14086
:1024E0000FB6F894DEBF0FBECDBF84E191E0C650B9
:1024F000DF4F99838883CA5FD040EAEFF0E0EC0FAA
:10250000FD1F399688E0DF011D928A95E9F7C55FC6
:10251000DE4F1882CB50D1408CEA90E0C050DF4FA4
:1025200099838883C050D1408EE390E0C450DF4F40
:1025300099838883CC5FD0408FE090E0C250DF4F1A
:1025400099838883CE5FD040CE5FDE4F1882C25021
:10255000D140C45FDE4F1882CC50D1401E01B9ED8E
:102560002B0E311CFE01319609E211E0A8E1B1E029
:102570002CE98CE990E040E050EC69E774E41183C9
:102580000083B783A68320872187938382839583E3
:10259000848313861486158616861786108A118AF8
:1025A000128A138A148A158A168A478B508F618F74
:1025B000728F7B962E163F0611F7789484B5826051
:1025C00084BD84B5816084BD85B5826085BD85B5D7
:1025D000816085BD80916E00816080936E00109255
:1025E00081008091810082608093810080918100D0
:1025F0008160809381008091800081608093800061
:10260000809191008260809391008091910081601F
:1026100080939100809190008160809390008091E0
:10262000C10084608093C1008091C100826080936A
:10263000C1008091C10081608093C1008091C3007E
:1026400081608093C3008091C00082608093C0004D
:102650008091C20081608093C20080917A00846082
:1026600080937A0080917A00826080937A008091D2
:102670007A00816080937A0080917A0080688093EC
:102680007A008FEF9FEF90939605809395051092B7
:10269000880110927201109281018091D7008160AF
:1026A0008093D70080EA8093D80089B5806189BD86
:1026B00089B5826089BD09B400FEFDCF61E070E09C
:1026C00080E090E00E9474118091D8008F7C80613E
:1026D0008093D8008091E000807F8093E00080911B
:1026E000E1008E7E8093E1008DE08093E200559AB8
:1026F000209A81EC80937C0085B1806F85B984B18C
:10270000877E84B984B1876E84B95E9A5F988AB1F6
:10271000806D8AB9769A6E9881B3806F81BB8998F3
:1027200080B38D7080BB80E58CBD81E08DBD85E080
:1027300090E00E946B0C5F9A85E090E00E946B0C29
:102740005E985C98E6EEF7E083EF97E024912EBD6B
:1027500000000DB407FEFDCF31968E179F07B1F72D
:102760005C9A81E880936400809165008160809329
:10277000650081E00E9437100E94700C8038B1F42F
:102780002E9880916400806280936400FFCF2D9822
:102790000E94700C8478843871F00E94700C8471EF
:1027A000843131F188EC90E00E946B0C0E94700C37
:1027B00082FDEDCF3AC00E94690C88EC90E00E9447
:1027C0006B0C2F9882E090E00E947C188F3F29F0DC
:1027D0006FEF82E090E00E94841884EF91E00E9405
:1027E0006B0C2F9A0E94700C84788438D9F3D5CF63
:1027F0000E94690C88EC90E00E946B0C2E9882E09D
:1028000090E00E947C18882329F060E082E090E04C
:102810000E94841884EF91E00E946B0C2E9A0E9413
:10282000700C84718431D9F3BDCF0E94690C0E9471
:10283000780C81E090E00E947D0CE82FE4709E2EE1
:1028400081FF85C0E1112E9800EF1FEFB8E0EB2E5D
:10285000F12C0E94700C86FF05C02E9A2F9A0E94C0
:10286000690C75C0992029F00430110511F42E9AD5
:102870002F9881E00E943710980117FF04C022278B
:102880003327201B310B27703327C80117FD07960C
:10289000A3E095958795AA95E1F717FF05C00197E5
:1028A000A701421B530B9A01AC015695542F4427A4
:1028B0005795479547575E4F60E070E03701621AC1
:1028C000730A8F3FAFEF9A074CF40196685A7F4F17
:1028D00040585F4F603B7105A1F71EC06A01B4E923
:1028E000CB0ED11C5A01A0E0B0E08F3FEFEF9E0766
:1028F00009F4AAC0FD01E60FF71FED50F84FE4916F
:10290000F0E02F01022E01C0440C0A94EAF7F50111
:1029100084884828448A98C080E00E9437108FE05D
:1029200090E00E946B0C0F5F1F4F0931110509F0F9
:1029300090CF992011F02F9A2D9880E991E00E9474
:102940006B0C0E94690C8BED95E00E9454178091EE
:1029500064008E7F8093640080917A00806480930D
:102960007A0080917A0086FDFCCF0091780010916A
:1029700079000E944F1120E030E0980111270027D4
:10298000600F711F821F931F2091640021602093AC
:102990006400611571058105910511F00E9473189D
:1029A00082E390E00E946B0C0E94700C8111F8CFC2
:1029B00080E28093E60510E0AA24A394BB24B3949C
:1029C00064E1462E512C612C712C7DE2872E71E042
:1029D000972E8FB7F89440918301509184016091B4
:1029E0008501709186018FBF8091E705F42FF81B58
:1029F0008F2F9091E805992329F0F093E905109223
:102A0000E80543C09091E605F91740F48F5F8917F8
:102A100008F03BC0A3BE889513BE37C0B092E8054E
:102A20004093E7052091E2053091E3052F5F3F4F8A
:102A30003093E3052093E2058091E905981710F49F
:102A40005D98C7CF5D9AC5CF2115310591F0FD0185
:102A5000E60FF71FED50F84FE491F0E02F01062C40
:102A600002C0559447940A94E2F7F6018080482802
:102A700040821196FFEFCF1ADF0AEFEFAE1ABE0ABF
:102A8000A835B10509F031CF20CF8091E4058093BE
:102A9000E5050E94700C8093E4059091E50592FD98
:102AA00009C082FF07C080916C01882309F407C127
:102AB0000E94780C80916A0190916B0181309105A0
:102AC00069F018F0029799F01AC0FE0131969782CA
:102AD00086827B96E215F305D1F7AAC18091E505C0
:102AE00083FD0DC08091E40583FF09C0EDC0809196
:102AF000E50583FF04C08091E40583FF94C140E2B3
:102B000061E0CE0186509F4F0E94200E9E012F5FF4
:102B10003F4F7901D701ED91FC910280F381E02DC7
:102B200040E261E0C7010995BBE1EB0EF11CE21444
:102B3000F30481F7FE0131967F01D701ED91FC91FD
:102B40000190F081E02DC7010995BBE1EB0EF11C6E
:102B5000E214F30491F7EE24E394F12C4DE2C42E39
:102B6000D12C40E0B601C7010E947F0CEFEFCE1AD6
:102B7000DE0AFFE3CF16D104A1F72FEFE21AF20A23
:102B800033E3E316F10451F740E36CE270E082E0D6
:102B900090E00E94C71040E36FE370E082E090E0B5
:102BA0000E94C7103EE2E32EF12C41E0B70180E025
:102BB00090E00E947F0C4FEFE41AF40A5EE3E51602
:102BC000F10499F72EE2E22EF12C41E0B70183E304
:102BD00090E00E947F0C8FEFE81AF80A9EE3E91656
:102BE000F10499F741E06EE270E082E090E00E942B
:102BF000461042E06EE270E081E390E00E944610F1
:102C000044E06DE370E081E390E00E94461048E00C
:102C10006DE370E082E090E00E94461082E0E82ED2
:102C2000F12CF092EB05E092EA058EE290E09093B1
:102C3000ED058093EC058EE591E00E942510F09261
:102C4000EB05E092EA0586E390E09093ED05809332
:102C5000EC0582E691E00E942510C45FDE4F2881DA
:102C6000CC50D14030E040E050E0C750DF4F1882F8
:102C7000C95FD04099EDE92EF12CEC0EFD1EA0E2CB
:102C8000EA0EF11CCA01B9012AE030E040E050E050
:102C90000E94C418605DF70162937F012115310520
:102CA0004105510579F7CF010E942510CE018650CC
:102CB0009F4F0E94410E81E00E9437108ACE3E9ABB
:102CC0003F9AB0926C01F6CECE5FDE4FA882C25022
:102CD000D140C45FDE4F8881CC50D1408F5FC45F4C
:102CE000DE4F8883CC50D140C55FDE4F8881CB500A
:102CF000D140873031F4C55FDE4F1882CB50D140D0
:102D000006C08F5FC55FDE4F8883CB50D140C55F63
:102D1000DE4F8881CB50D140EAEFF0E0EC0FFD1F91
:102D2000E80FF11D82E18187DD24D394D10EE12EDD
:102D3000F12C0E9425182BE12E9D80012F9D100D56
:102D4000112421E030E02C0F3D1F020F131FA301BF
:102D500092010E949218D80118966C93189788E4F3
:102D600019968C930E942518A30192010E94921833
:102D70000E94121AF801638774878587968720E07E
:102D800030E044E552EC2787308B418B528B20E0BA
:102D900030E040EA51EC238B348B458B568B178AFD
:102DA000108E118E128E0E94251822E030E040E035
:102DB00050E00E949218672B682B692BA9F0D8016C
:102DC00018969C91189780E4891B18968C931897F5
:102DD0001B968D919D910D90BC91A02DB058F8013E
:102DE00083879487A587B687F8E0DF1201C0D12CCE
:102DF000809171008D7F80937100B092710183EAA0
:102E000098E09093700180936F0190936E0180938E
:102E10006D010E945B0B82E090E090936B018093C8
:102E20006A011D2D6CCECE5FDE4F1882C250D1409C
:102E300081E090E090936B0180936A0160CEDF9215
:102E4000EF92FF920F931F93CF93DF93D82EF92E1B
:102E5000E42E062F10E0C8010196880F0E94360765
:102E600083E00E943607CD2DDF2D0C0F1D1FC017EC
:102E7000D10789F0E7FE03C0FE01849101C088817B
:102E80000E943607F82E80E00E9436078F21219697
:102E90008111EDCF01C081E0DF91CF911F910F91A2
:102EA000FF90EF90DF9008950F931F93CF93DF93E0
:102EB0008C0181E090E00E947D0C80FF32C08AE0AE
:102EC00090E00E947D0C9FEF980F9E3F50F522E30B
:102ED00030E0D80150963C932E931F9728E330E0C2
:102EE00052963C932E935197CBE0D0E0D801ED91D0
:102EF000FC910190F081E02D682FC8010995CE0169
:102F00000E947D0C2196C131D10581F780E00E949D
:102F1000371088EE93E0DF91CF911F910F910C94C1
:102F20006B0CDF91CF911F910F91089504970C9432
:102F30005417E9E8F5E01382128288EE93E0A0E0EE
:102F4000B0E084839583A683B7838CE391E091837B
:102F500080838FEF9FEF95878487EBEDF5E01382F9
:102F600012821186128680E1838710861782158669
:102F70008EE491E0918380838CE591E09583848356
:102F8000108A1786128A118A81E0838B148A858BB6
:102F9000168A87E198E09093DA058093D90580E05E
:102FA00090E89093100680930F0646983E9A4798B3
:102FB0003F9A08958F929F92AF92BF92CF92DF92E5
:102FC000EF92FF92CF93DF93EC01688179818A8140
:102FD0009B81611571058105910521F464E279ED0C
:102FE0008BE597E02DE133EF41E050E00E9492182D
:102FF00049015A019B01AC01A7EAB1E40E94B11852
:103000006B017C01ACEEB4EFA50194010E94BF18E6
:10301000DC01CB018C0D9D1DAE1DBF1DB7FF03C094
:103020000197A109B04888839983AA83BB83BC0117
:10303000CD019F77DF91CF91FF90EF90DF90CF9000
:10304000BF90AF909F908F9008958F929F92AF9274
:10305000BF92CF92DF92EF92FF9260910C0170913C
:103060000D0180910E0190910F016115710581058F
:10307000910521F464E279ED8BE597E02DE133EFE2
:1030800041E050E00E94921849015A019B01AC01B5
:10309000A7EAB1E40E94B1186B017C01ACEEB4EF79
:1030A000A50194010E94BF18DC01CB018C0D9D1D70
:1030B000AE1DBF1DB7FF03C00197A109B0488093A3
:1030C0000C0190930D01A0930E01B0930F01BC0170
:1030D000CD019F77FF90EF90DF90CF90BF90AF90A2
:1030E0009F908F90089560930C0170930D018093D1
:1030F0000E0190930F010895F999FECF92BD81BD05
:10310000F89A992780B50895262FF999FECF1FBA0E
:1031100092BD81BD20BD0FB6F894FA9AF99A0FBE00
:1031200001960895052E97FB1EF400940E94A9189D
:1031300057FD07D00E94C41807FC03D04EF40C942E
:10314000A91850954095309521953F4F4F4F5F4FAF
:10315000089590958095709561957F4F8F4F9F4F03
:1031600008950E94E618A59F900DB49F900DA49F0E
:10317000800D911D11240895B7FF0C94B1180E9481
:10318000B118821B930B0895A1E21A2EAA1BBB1B38
:10319000FD010DC0AA1FBB1FEE1FFF1FA217B30723
:1031A000E407F50720F0A21BB30BE40BF50B661F39
:1031B000771F881F991F1A9469F7609570958095FD
:1031C00090959B01AC01BD01CF010895A29FB00174
:1031D000B39FC001A39F700D811D1124911DB29F4B
:1031E000700D811D1124911D0895EE0FFF1F059094
:1031F000F491E02D09945058BB27AA270E94131977
:103200000C94641A0E94561A38F00E945D1A20F03D
:1032100039F49F3F19F426F40C94531A0EF4E095F8
:10322000E7FB0C944D1AE92F0E94751A58F3BA1750
:10323000620773078407950720F079F4A6F50C94CC
:10324000971A0EF4E0950B2EBA2FA02D0B01B901A1
:1032500090010C01CA01A0011124FF27591B99F00C
:10326000593F50F4503E68F11A16F040A22F232F18
:10327000342F4427585FF3CF469537952795A79568
:10328000F0405395C9F77EF41F16BA0B620B730B0F
:10329000840BBAF09150A1F0FF0FBB1F661F771F80
:1032A000881FC2F70EC0BA0F621F731F841F48F435
:1032B000879577956795B795F7959E3F08F0B0CFBE
:1032C0009395880F08F09927EE0F979587950895A5
:1032D0000E947C190C94641A0E945D1A58F00E9496
:1032E000561A40F029F45F3F29F00C944D1A511101
:1032F0000C94981A0C94531A0E94751A68F3992327
:10330000B1F3552391F3951B550BBB27AA276217E1
:103310007307840738F09F5F5F4F220F331F441FEE
:10332000AA1FA9F335D00E2E3AF0E0E832D0915022
:103330005040E695001CCAF72BD0FE2F29D0660F0F
:10334000771F881FBB1F261737074807AB07B0E852
:1033500009F0BB0B802DBF01FF2793585F4F3AF058
:103360009E3F510578F00C944D1A0C94981A5F3FCB
:10337000E4F3983ED4F3869577956795B795F795DE
:103380009F5FC9F7880F911D9695879597F90895C6
:10339000E1E0660F771F881FBB1F62177307840762
:1033A000BA0720F0621B730B840BBA0BEE1F88F771
:1033B000E09508950E94E1196894B1110C94981A4F
:1033C00008950E947D1A88F09F5798F0B92F992789
:1033D000B751B0F0E1F0660F771F881F991F1AF000
:1033E000BA95C9F714C0B13091F00E94971AB1E0B4
:1033F00008950C94971A672F782F8827B85F39F0B3
:10340000B93FCCF3869577956795B395D9F73EF498
:1034100090958095709561957F4F8F4F9F4F089540
:10342000E89409C097FB3EF490958095709561955E
:103430007F4F8F4F9F4F9923A9F0F92F96E9BB2714
:103440009395F695879577956795B795F111F8CF90
:10345000FAF4BB0F11F460FF1BC06F5F7F4F8F4FFB
:103460009F4F16C0882311F096E911C0772321F0F1
:103470009EE8872F762F05C0662371F096E8862F89
:1034800070E060E02AF09A95660F771F881FDAF7E0
:10349000880F9695879597F9089597F99F6780E823
:1034A00070E060E008959FEF80EC089500240A9496
:1034B0001616170618060906089500240A9412160F
:1034C0001306140605060895092E0394000C11F442
:1034D000882352F0BB0F40F4BF2B11F460FF04C0EF
:1034E0006F5F7F4F8F4F9F4F089557FD9058440F48
:1034F000551F59F05F3F71F04795880F97FB991F53
:1035000061F09F3F79F0879508951216130614060F
:10351000551FF2CF4695F1DF08C01616170618069C
:10352000991FF1CF86957105610508940895E89477
:10353000BB2766277727CB0197F908950E94101BB8
:1035400008F48FEF08950E94B61A0C94641A0E9432
:10355000561A38F00E945D1A20F0952311F00C9451
:103560004D1A0C94531A11240C94981A0E94751A2F
:1035700070F3959FC1F3950F50E0551F629FF001C6
:10358000729FBB27F00DB11D639FAA27F00DB11DDF
:10359000AA1F649F6627B00DA11D661F829F222768
:1035A000B00DA11D621F739FB00DA11D621F839FEF
:1035B000A00D611D221F749F3327A00D611D231FC5
:1035C000849F600D211D822F762F6A2F11249F5713
:1035D00050409AF0F1F088234AF0EE0FFF1FBB1F16
:1035E000661F771F881F91505040A9F79E3F5105D5
:1035F00080F00C944D1A0C94981A5F3FE4F3983EB7
:10360000D4F3869577956795B795F795E7959F5F7E
:10361000C1F7FE2B880F911D9695879597F9089510
:10362000990F0008550FAA0BE0E8FEEF16161706D3
:10363000E807F907C0F012161306E407F50798F03B
:10364000621B730B840B950B39F40A2661F0232B54
:10365000242B252B21F408950A2609F4A140A695D0
:103660008FEF811D811D089581E090E0F8940C9406
:06367000391BF894FFCFA6
:10367600FFFFFFFF00E10000000000000100000066
:1036860000000000410E200E44454641554C542092
:103696005445585400000000002E0E940D4E55540B
:1036A6000000C1808100000000000000C207510830
:1036B600D708D807E307FF08DB08000000009A0CCC
:1036C60098071C081B085417FCFF000096174E5558
:0A36D6005400434F554E543A0000D3
:00000001FF
